S0200000547261666669632073797374656D20666F7220626C696E642E73726563F0
S11300000C942A000C9434000C9434000C943400A6
S11300100C9434000C9434000C9434000C9434008C
S11300200C9434000C9434000C9434000C9434007C
S11300300C9434000C9434000C9434000C9434006C
S11300400C9434000C9434000C9434000C9434005C
S11300500C94340011241FBECFE5D4E0DEBFCDBF25
S11300600E9452000C9455000C940000A09AA19A8E
S1130070A29AA39A889A899A8A9A8B9A82E085BBD3
S113008012BA8AE091E0815082BB95BB2FE33DE038
S113009043E0215030404040E1F700C000008111AE
S11100A0F2CF08950E943600FDCFF894FFCFF2
S9030000FC
