:100000000C942A000C9434000C9434000C943400AA
:100010000C9434000C9434000C9434000C94340090
:100020000C9434000C9434000C9434000C94340080
:100030000C9434000C9434000C9434000C94340070
:100040000C9434000C9434000C9434000C94340060
:100050000C94340011241FBECFE5D4E0DEBFCDBF29
:100060000E9445010C9452010C94000087B38061FA
:1000700087BB88B38F7E88BB88B3806188BB0895B7
:1000800087B3806187BB88B38F7E88BB88B38F7E40
:1000900088BB08950E9436002FE58AEE90E021503B
:1000A00080409040E1F700C000000E9440000895A9
:1000B00087B3806887BB88B38F7788BB88B3806835
:1000C00088BB089587B3806887BB88B38F7788BB68
:1000D00088B38F7788BB089587B3806487BB88B364
:1000E0008F7B88BB88B3806488BB089587B38064A6
:1000F00087BB88B38E7F88BB88B38F7B88BB08950E
:10010000CF9384B3816084BB84B3826084BB84B3A7
:10011000846084BB84B3886084BB81B3816081BB0D
:1001200081B3826081BB81B3846081BB81B388600D
:1001300081BB82E085BB85E082BB0DC092E095BBB0
:10014000815082BB2FEC38E792E021503040904044
:10015000E1F700C000008111F1CF81E085BB8AE0AA
:100160000DC091E095BB815082BB2FEC38E792E047
:10017000215030409040E1F700C000008111F1CFE4
:10018000CAE014C015BAC150C2BB2FEC38E782E0F8
:10019000215030408040E1F700C00000C53030F40D
:1001A0000E946C000E9462000E944A00C111EACFC6
:1001B00015BA12BA0E947600CF91089587B3806273
:1001C00087BB88B38F7D88BB88B3806288BB089566
:1001D00087B3806287BB88B38E7F88BB88B38F7DEF
:1001E00088BB0895CF9384B3816084BB84B382605D
:1001F00084BB84B3846084BB84B3886084BB81B3D4
:10020000816081BB81B3826081BB81B3846081BB2B
:1002100081B3886081BB89E085BB82BB29E010C0C7
:10022000815082BB3FEC48E792E031504040904023
:10023000E1F700C0000092B3911103C0215025BB2B
:100240008AE02223C9F08111EBCFCAE016C015BAAB
:10025000C150C2BBC53030F40E94E8000E946C005F
:100260000E944A002FEC38E742E0215030404040E5
:10027000E1F700C0000001C0CAE0C111E8CF0E9450
:1002800076000E945800CF9108950E9458000E9465
:1002900080000E9462000E94DE000E94F2000E9424
:0802A000E800F3CFF894FFCF52
:00000001FF
